{
  "contractName": "Test",
  "abi": [
    {
      "constant": false,
      "inputs": [
        {
          "name": "A",
          "type": "int256"
        },
        {
          "name": "B",
          "type": "int256"
        }
      ],
      "name": "set_add_data",
      "outputs": [],
      "payable": false,
      "stateMutability": "nonpayable",
      "type": "function",
      "signature": "0x4f95ea8d"
    },
    {
      "constant": false,
      "inputs": [],
      "name": "get_add_data",
      "outputs": [
        {
          "name": "",
          "type": "int256"
        }
      ],
      "payable": false,
      "stateMutability": "nonpayable",
      "type": "function",
      "signature": "0x9a8beb69"
    }
  ],
  "bytecode": "0x608060405234801561001057600080fd5b5061010c806100206000396000f3fe6080604052600436106049576000357c0100000000000000000000000000000000000000000000000000000000900463ffffffff1680634f95ea8d14604e5780639a8beb6914608f575b600080fd5b348015605957600080fd5b50608d60048036036040811015606e57600080fd5b81019080803590602001909291908035906020019092919050505060b7565b005b348015609a57600080fd5b5060a160d6565b6040518082815260200191505060405180910390f35b8160008190555080600181905550600154600054016002819055505050565b600060025490509056fea165627a7a72305820bf555550d243c97c2ff06d27db9b6971000790c91ec4a7b92bccd05bc0af5af50029",
  "source": "pragma solidity ^0.5.0 ;\r\n \r\ncontract Test {\r\n  // float addresult;\r\n   int a;\r\n   int b;\r\n   int c;\r\n   function set_add_data(int A, int B) public{\r\n       a =A;\r\n       b =B;\r\n   //    result = addresult;\r\n       c = a+b;\r\n   }\r\n   function get_add_data() public returns(int){\r\n       return (c) ;\r\n   }\r\n}",
  "sourcePath": "E:/dharmil/Task/Solidity_task/truffle_ganache/testing_ganache_with_truffle/contracts/test.sol",
  "compiler": {
    "name": "solc",
    "version": "0.5.0+commit.1d4f565a.Emscripten.clang"
  },
  "schemaVersion": "3.0.0",
  "updatedAt": "2018-12-24T09:27:29.369Z",
  "devdoc": {
    "methods": {}
  },
  "userdoc": {
    "methods": {}
  }
}